{
  "contractName": "Authentication",
  "abi": [
    {
      "constant": true,
      "inputs": [],
      "name": "userCount",
      "outputs": [
        {
          "name": "",
          "type": "uint256"
        }
      ],
      "payable": false,
      "stateMutability": "view",
      "type": "function"
    },
    {
      "constant": true,
      "inputs": [],
      "name": "ownerCount",
      "outputs": [
        {
          "name": "",
          "type": "uint256"
        }
      ],
      "payable": false,
      "stateMutability": "view",
      "type": "function"
    },
    {
      "constant": true,
      "inputs": [
        {
          "name": "",
          "type": "uint256"
        }
      ],
      "name": "usersList",
      "outputs": [
        {
          "name": "username",
          "type": "string"
        },
        {
          "name": "password",
          "type": "string"
        },
        {
          "name": "phone",
          "type": "string"
        },
        {
          "name": "email",
          "type": "string"
        },
        {
          "name": "user_address",
          "type": "string"
        },
        {
          "name": "usertype",
          "type": "string"
        }
      ],
      "payable": false,
      "stateMutability": "view",
      "type": "function"
    },
    {
      "constant": true,
      "inputs": [],
      "name": "authCount",
      "outputs": [
        {
          "name": "",
          "type": "uint256"
        }
      ],
      "payable": false,
      "stateMutability": "view",
      "type": "function"
    },
    {
      "constant": true,
      "inputs": [
        {
          "name": "",
          "type": "uint256"
        }
      ],
      "name": "authList",
      "outputs": [
        {
          "name": "auth_hash",
          "type": "string"
        },
        {
          "name": "requester",
          "type": "string"
        }
      ],
      "payable": false,
      "stateMutability": "view",
      "type": "function"
    },
    {
      "constant": true,
      "inputs": [
        {
          "name": "",
          "type": "uint256"
        }
      ],
      "name": "ownerList",
      "outputs": [
        {
          "name": "owner_details",
          "type": "string"
        },
        {
          "name": "ownername",
          "type": "string"
        }
      ],
      "payable": false,
      "stateMutability": "view",
      "type": "function"
    },
    {
      "anonymous": false,
      "inputs": [
        {
          "indexed": true,
          "name": "_authId",
          "type": "uint256"
        }
      ],
      "name": "authCreated",
      "type": "event"
    },
    {
      "anonymous": false,
      "inputs": [
        {
          "indexed": true,
          "name": "_userId",
          "type": "uint256"
        }
      ],
      "name": "userCreated",
      "type": "event"
    },
    {
      "anonymous": false,
      "inputs": [
        {
          "indexed": true,
          "name": "_ownerId",
          "type": "uint256"
        }
      ],
      "name": "ownerCreated",
      "type": "event"
    },
    {
      "constant": false,
      "inputs": [
        {
          "name": "hd",
          "type": "string"
        },
        {
          "name": "req",
          "type": "string"
        }
      ],
      "name": "saveAuthentication",
      "outputs": [],
      "payable": false,
      "stateMutability": "nonpayable",
      "type": "function"
    },
    {
      "constant": true,
      "inputs": [],
      "name": "getAuthenticationCount",
      "outputs": [
        {
          "name": "",
          "type": "uint256"
        }
      ],
      "payable": false,
      "stateMutability": "view",
      "type": "function"
    },
    {
      "constant": true,
      "inputs": [
        {
          "name": "i",
          "type": "uint256"
        }
      ],
      "name": "getAuthentication",
      "outputs": [
        {
          "name": "",
          "type": "string"
        }
      ],
      "payable": false,
      "stateMutability": "view",
      "type": "function"
    },
    {
      "constant": true,
      "inputs": [
        {
          "name": "i",
          "type": "uint256"
        }
      ],
      "name": "getRequester",
      "outputs": [
        {
          "name": "",
          "type": "string"
        }
      ],
      "payable": false,
      "stateMutability": "view",
      "type": "function"
    },
    {
      "constant": false,
      "inputs": [
        {
          "name": "_username",
          "type": "string"
        },
        {
          "name": "_password",
          "type": "string"
        },
        {
          "name": "_phone",
          "type": "string"
        },
        {
          "name": "_email",
          "type": "string"
        },
        {
          "name": "_address",
          "type": "string"
        },
        {
          "name": "ut",
          "type": "string"
        }
      ],
      "name": "createUser",
      "outputs": [],
      "payable": false,
      "stateMutability": "nonpayable",
      "type": "function"
    },
    {
      "constant": true,
      "inputs": [],
      "name": "getUserCount",
      "outputs": [
        {
          "name": "",
          "type": "uint256"
        }
      ],
      "payable": false,
      "stateMutability": "view",
      "type": "function"
    },
    {
      "constant": true,
      "inputs": [
        {
          "name": "i",
          "type": "uint256"
        }
      ],
      "name": "getUsername",
      "outputs": [
        {
          "name": "",
          "type": "string"
        }
      ],
      "payable": false,
      "stateMutability": "view",
      "type": "function"
    },
    {
      "constant": true,
      "inputs": [
        {
          "name": "i",
          "type": "uint256"
        }
      ],
      "name": "getPassword",
      "outputs": [
        {
          "name": "",
          "type": "string"
        }
      ],
      "payable": false,
      "stateMutability": "view",
      "type": "function"
    },
    {
      "constant": true,
      "inputs": [
        {
          "name": "i",
          "type": "uint256"
        }
      ],
      "name": "getAddress",
      "outputs": [
        {
          "name": "",
          "type": "string"
        }
      ],
      "payable": false,
      "stateMutability": "view",
      "type": "function"
    },
    {
      "constant": true,
      "inputs": [
        {
          "name": "i",
          "type": "uint256"
        }
      ],
      "name": "getEmail",
      "outputs": [
        {
          "name": "",
          "type": "string"
        }
      ],
      "payable": false,
      "stateMutability": "view",
      "type": "function"
    },
    {
      "constant": true,
      "inputs": [
        {
          "name": "i",
          "type": "uint256"
        }
      ],
      "name": "getPhone",
      "outputs": [
        {
          "name": "",
          "type": "string"
        }
      ],
      "payable": false,
      "stateMutability": "view",
      "type": "function"
    },
    {
      "constant": true,
      "inputs": [
        {
          "name": "i",
          "type": "uint256"
        }
      ],
      "name": "getUserType",
      "outputs": [
        {
          "name": "",
          "type": "string"
        }
      ],
      "payable": false,
      "stateMutability": "view",
      "type": "function"
    },
    {
      "constant": false,
      "inputs": [
        {
          "name": "od",
          "type": "string"
        },
        {
          "name": "on",
          "type": "string"
        }
      ],
      "name": "saveOwner",
      "outputs": [],
      "payable": false,
      "stateMutability": "nonpayable",
      "type": "function"
    },
    {
      "constant": true,
      "inputs": [],
      "name": "getOwnerCount",
      "outputs": [
        {
          "name": "",
          "type": "uint256"
        }
      ],
      "payable": false,
      "stateMutability": "view",
      "type": "function"
    },
    {
      "constant": true,
      "inputs": [
        {
          "name": "i",
          "type": "uint256"
        }
      ],
      "name": "getDetails",
      "outputs": [
        {
          "name": "",
          "type": "string"
        }
      ],
      "payable": false,
      "stateMutability": "view",
      "type": "function"
    },
    {
      "constant": true,
      "inputs": [
        {
          "name": "i",
          "type": "uint256"
        }
      ],
      "name": "getOwnername",
      "outputs": [
        {
          "name": "",
          "type": "string"
        }
      ],
      "payable": false,
      "stateMutability": "view",
      "type": "function"
    }
  ],
  "bytecode": "0x6080604052600080556000600255600060045534801561001e57600080fd5b506132b08061002e6000396000f3fe608060405260043610610122576000357c01000000000000000000000000000000000000000000000000000000009004806301dadb2b1461012757806307973ccf146101505780630db026221461017b57806313f58f71146101a6578063206442e8146101e35780632e7d44b51461020c578063502aa3b514610249578063972fe8bc1461028b57806399c6679d146102c8578063ad856c2814610305578063b5cb15f71461032e578063b83c2f3614610359578063b8abb1a014610396578063b93a89f7146103c1578063b93f9b0a146103fe578063d98307fd1461043b578063def79ab514610479578063e37b842a146104b7578063ec31fee8146104e2578063ef18374a1461051f578063f18d18cc1461054a578063f38c6bb614610587575b600080fd5b34801561013357600080fd5b5061014e60048036036101499190810190612ee4565b6105c4565b005b34801561015c57600080fd5b50610165610701565b6040516101729190613185565b60405180910390f35b34801561018757600080fd5b50610190610707565b60405161019d9190613185565b60405180910390f35b3480156101b257600080fd5b506101cd60048036036101c89190810190612ffd565b61070d565b6040516101da91906130a1565b60405180910390f35b3480156101ef57600080fd5b5061020a60048036036102059190810190612e78565b610b11565b005b34801561021857600080fd5b50610233600480360361022e9190810190612ffd565b610bbb565b60405161024091906130a1565b60405180910390f35b34801561025557600080fd5b50610270600480360361026b9190810190612ffd565b610fbf565b604051610282969594939291906130fa565b60405180910390f35b34801561029757600080fd5b506102b260048036036102ad9190810190612ffd565b61138b565b6040516102bf91906130a1565b60405180910390f35b3480156102d457600080fd5b506102ef60048036036102ea9190810190612ffd565b61178f565b6040516102fc91906130a1565b60405180910390f35b34801561031157600080fd5b5061032c60048036036103279190810190612e78565b61190a565b005b34801561033a57600080fd5b506103436119b6565b6040516103509190613185565b60405180910390f35b34801561036557600080fd5b50610380600480360361037b9190810190612ffd565b6119c0565b60405161038d91906130a1565b60405180910390f35b3480156103a257600080fd5b506103ab611b3b565b6040516103b89190613185565b60405180910390f35b3480156103cd57600080fd5b506103e860048036036103e39190810190612ffd565b611b41565b6040516103f591906130a1565b60405180910390f35b34801561040a57600080fd5b5061042560048036036104209190810190612ffd565b611cbc565b60405161043291906130a1565b60405180910390f35b34801561044757600080fd5b50610462600480360361045d9190810190612ffd565b6120c0565b6040516104709291906130c3565b60405180910390f35b34801561048557600080fd5b506104a0600480360361049b9190810190612ffd565b612214565b6040516104ae9291906130c3565b60405180910390f35b3480156104c357600080fd5b506104cc612368565b6040516104d99190613185565b60405180910390f35b3480156104ee57600080fd5b5061050960048036036105049190810190612ffd565b612371565b60405161051691906130a1565b60405180910390f35b34801561052b57600080fd5b506105346124ec565b6040516105419190613185565b60405180910390f35b34801561055657600080fd5b50610571600480360361056c9190810190612ffd565b6124f6565b60405161057e91906130a1565b60405180910390f35b34801561059357600080fd5b506105ae60048036036105a99190810190612ffd565b6128fa565b6040516105bb91906130a1565b60405180910390f35b60c060405190810160405280878152602001868152602001858152602001848152602001838152602001828152506003600060025481526020019081526020016000206000820151816000019080519060200190610623929190612cfe565b506020820151816001019080519060200190610640929190612cfe565b50604082015181600201908051906020019061065d929190612cfe565b50606082015181600301908051906020019061067a929190612cfe565b506080820151816004019080519060200190610697929190612cfe565b5060a08201518160050190805190602001906106b4929190612cfe565b509050506002547f1ed675bb725b3a8b0434b9ee956fe05e4c0e79f9dc67c3f1a717a5bb1fd88fd360405160405180910390a2600260008154809291906001019190505550505050505050565b60025481565b60045481565b6060610717612d7e565b6003600084815260200190815260200160002060c06040519081016040529081600082018054600181600116156101000203166002900480601f0160208091040260200160405190810160405280929190818152602001828054600181600116156101000203166002900480156107cf5780601f106107a4576101008083540402835291602001916107cf565b820191906000526020600020905b8154815290600101906020018083116107b257829003601f168201915b50505050508152602001600182018054600181600116156101000203166002900480601f0160208091040260200160405190810160405280929190818152602001828054600181600116156101000203166002900480156108715780601f1061084657610100808354040283529160200191610871565b820191906000526020600020905b81548152906001019060200180831161085457829003601f168201915b50505050508152602001600282018054600181600116156101000203166002900480601f0160208091040260200160405190810160405280929190818152602001828054600181600116156101000203166002900480156109135780601f106108e857610100808354040283529160200191610913565b820191906000526020600020905b8154815290600101906020018083116108f657829003601f168201915b50505050508152602001600382018054600181600116156101000203166002900480601f0160208091040260200160405190810160405280929190818152602001828054600181600116156101000203166002900480156109b55780601f1061098a576101008083540402835291602001916109b5565b820191906000526020600020905b81548152906001019060200180831161099857829003601f168201915b50505050508152602001600482018054600181600116156101000203166002900480601f016020809104026020016040519081016040528092919081815260200182805460018160011615610100020316600290048015610a575780601f10610a2c57610100808354040283529160200191610a57565b820191906000526020600020905b815481529060010190602001808311610a3a57829003601f168201915b50505050508152602001600582018054600181600116156101000203166002900480601f016020809104026020016040519081016040528092919081815260200182805460018160011615610100020316600290048015610af95780601f10610ace57610100808354040283529160200191610af9565b820191906000526020600020905b815481529060010190602001808311610adc57829003601f168201915b50505050508152505090508060a00151915050919050565b60408051908101604052808381526020018281525060016000805481526020019081526020016000206000820151816000019080519060200190610b56929190612cfe565b506020820151816001019080519060200190610b73929190612cfe565b509050506000547f35e968f08f98d5ae8eb3ea4a6e678dfd5c47de93fa04d11f8d2e9f61c6dbd58d60405160405180910390a260008081548092919060010191905055505050565b6060610bc5612d7e565b6003600084815260200190815260200160002060c06040519081016040529081600082018054600181600116156101000203166002900480601f016020809104026020016040519081016040528092919081815260200182805460018160011615610100020316600290048015610c7d5780601f10610c5257610100808354040283529160200191610c7d565b820191906000526020600020905b815481529060010190602001808311610c6057829003601f168201915b50505050508152602001600182018054600181600116156101000203166002900480601f016020809104026020016040519081016040528092919081815260200182805460018160011615610100020316600290048015610d1f5780601f10610cf457610100808354040283529160200191610d1f565b820191906000526020600020905b815481529060010190602001808311610d0257829003601f168201915b50505050508152602001600282018054600181600116156101000203166002900480601f016020809104026020016040519081016040528092919081815260200182805460018160011615610100020316600290048015610dc15780601f10610d9657610100808354040283529160200191610dc1565b820191906000526020600020905b815481529060010190602001808311610da457829003601f168201915b50505050508152602001600382018054600181600116156101000203166002900480601f016020809104026020016040519081016040528092919081815260200182805460018160011615610100020316600290048015610e635780601f10610e3857610100808354040283529160200191610e63565b820191906000526020600020905b815481529060010190602001808311610e4657829003601f168201915b50505050508152602001600482018054600181600116156101000203166002900480601f016020809104026020016040519081016040528092919081815260200182805460018160011615610100020316600290048015610f055780601f10610eda57610100808354040283529160200191610f05565b820191906000526020600020905b815481529060010190602001808311610ee857829003601f168201915b50505050508152602001600582018054600181600116156101000203166002900480601f016020809104026020016040519081016040528092919081815260200182805460018160011615610100020316600290048015610fa75780601f10610f7c57610100808354040283529160200191610fa7565b820191906000526020600020905b815481529060010190602001808311610f8a57829003601f168201915b50505050508152505090508060400151915050919050565b6003602052806000526040600020600091509050806000018054600181600116156101000203166002900480601f01602080910402602001604051908101604052809291908181526020018280546001816001161561010002031660029004801561106b5780601f106110405761010080835404028352916020019161106b565b820191906000526020600020905b81548152906001019060200180831161104e57829003601f168201915b505050505090806001018054600181600116156101000203166002900480601f0160208091040260200160405190810160405280929190818152602001828054600181600116156101000203166002900480156111095780601f106110de57610100808354040283529160200191611109565b820191906000526020600020905b8154815290600101906020018083116110ec57829003601f168201915b505050505090806002018054600181600116156101000203166002900480601f0160208091040260200160405190810160405280929190818152602001828054600181600116156101000203166002900480156111a75780601f1061117c576101008083540402835291602001916111a7565b820191906000526020600020905b81548152906001019060200180831161118a57829003601f168201915b505050505090806003018054600181600116156101000203166002900480601f0160208091040260200160405190810160405280929190818152602001828054600181600116156101000203166002900480156112455780601f1061121a57610100808354040283529160200191611245565b820191906000526020600020905b81548152906001019060200180831161122857829003601f168201915b505050505090806004018054600181600116156101000203166002900480601f0160208091040260200160405190810160405280929190818152602001828054600181600116156101000203166002900480156112e35780601f106112b8576101008083540402835291602001916112e3565b820191906000526020600020905b8154815290600101906020018083116112c657829003601f168201915b505050505090806005018054600181600116156101000203166002900480601f0160208091040260200160405190810160405280929190818152602001828054600181600116156101000203166002900480156113815780601f1061135657610100808354040283529160200191611381565b820191906000526020600020905b81548152906001019060200180831161136457829003601f168201915b5050505050905086565b6060611395612d7e565b6003600084815260200190815260200160002060c06040519081016040529081600082018054600181600116156101000203166002900480601f01602080910402602001604051908101604052809291908181526020018280546001816001161561010002031660029004801561144d5780601f106114225761010080835404028352916020019161144d565b820191906000526020600020905b81548152906001019060200180831161143057829003601f168201915b50505050508152602001600182018054600181600116156101000203166002900480601f0160208091040260200160405190810160405280929190818152602001828054600181600116156101000203166002900480156114ef5780601f106114c4576101008083540402835291602001916114ef565b820191906000526020600020905b8154815290600101906020018083116114d257829003601f168201915b50505050508152602001600282018054600181600116156101000203166002900480601f0160208091040260200160405190810160405280929190818152602001828054600181600116156101000203166002900480156115915780601f1061156657610100808354040283529160200191611591565b820191906000526020600020905b81548152906001019060200180831161157457829003601f168201915b50505050508152602001600382018054600181600116156101000203166002900480601f0160208091040260200160405190810160405280929190818152602001828054600181600116156101000203166002900480156116335780601f1061160857610100808354040283529160200191611633565b820191906000526020600020905b81548152906001019060200180831161161657829003601f168201915b50505050508152602001600482018054600181600116156101000203166002900480601f0160208091040260200160405190810160405280929190818152602001828054600181600116156101000203166002900480156116d55780601f106116aa576101008083540402835291602001916116d5565b820191906000526020600020905b8154815290600101906020018083116116b857829003601f168201915b50505050508152602001600582018054600181600116156101000203166002900480601f0160208091040260200160405190810160405280929190818152602001828054600181600116156101000203166002900480156117775780601f1061174c57610100808354040283529160200191611777565b820191906000526020600020905b81548152906001019060200180831161175a57829003601f168201915b50505050508152505090508060600151915050919050565b6060611799612db5565b60016000848152602001908152602001600020604080519081016040529081600082018054600181600116156101000203166002900480601f0160208091040260200160405190810160405280929190818152602001828054600181600116156101000203166002900480156118505780601f1061182557610100808354040283529160200191611850565b820191906000526020600020905b81548152906001019060200180831161183357829003601f168201915b50505050508152602001600182018054600181600116156101000203166002900480601f0160208091040260200160405190810160405280929190818152602001828054600181600116156101000203166002900480156118f25780601f106118c7576101008083540402835291602001916118f2565b820191906000526020600020905b8154815290600101906020018083116118d557829003601f168201915b50505050508152505090508060200151915050919050565b6040805190810160405280838152602001828152506005600060045481526020019081526020016000206000820151816000019080519060200190611950929190612cfe565b50602082015181600101908051906020019061196d929190612cfe565b509050506004547f48fe6736e03cde2f72bd997489027a1c856261c1be6055e12496e8464688b1f460405160405180910390a26004600081548092919060010191905055505050565b6000600254905090565b60606119ca612dcf565b60056000848152602001908152602001600020604080519081016040529081600082018054600181600116156101000203166002900480601f016020809104026020016040519081016040528092919081815260200182805460018160011615610100020316600290048015611a815780601f10611a5657610100808354040283529160200191611a81565b820191906000526020600020905b815481529060010190602001808311611a6457829003601f168201915b50505050508152602001600182018054600181600116156101000203166002900480601f016020809104026020016040519081016040528092919081815260200182805460018160011615610100020316600290048015611b235780601f10611af857610100808354040283529160200191611b23565b820191906000526020600020905b815481529060010190602001808311611b0657829003601f168201915b50505050508152505090508060200151915050919050565b60005481565b6060611b4b612dcf565b60056000848152602001908152602001600020604080519081016040529081600082018054600181600116156101000203166002900480601f016020809104026020016040519081016040528092919081815260200182805460018160011615610100020316600290048015611c025780601f10611bd757610100808354040283529160200191611c02565b820191906000526020600020905b815481529060010190602001808311611be557829003601f168201915b50505050508152602001600182018054600181600116156101000203166002900480601f016020809104026020016040519081016040528092919081815260200182805460018160011615610100020316600290048015611ca45780601f10611c7957610100808354040283529160200191611ca4565b820191906000526020600020905b815481529060010190602001808311611c8757829003601f168201915b50505050508152505090508060000151915050919050565b6060611cc6612d7e565b6003600084815260200190815260200160002060c06040519081016040529081600082018054600181600116156101000203166002900480601f016020809104026020016040519081016040528092919081815260200182805460018160011615610100020316600290048015611d7e5780601f10611d5357610100808354040283529160200191611d7e565b820191906000526020600020905b815481529060010190602001808311611d6157829003601f168201915b50505050508152602001600182018054600181600116156101000203166002900480601f016020809104026020016040519081016040528092919081815260200182805460018160011615610100020316600290048015611e205780601f10611df557610100808354040283529160200191611e20565b820191906000526020600020905b815481529060010190602001808311611e0357829003601f168201915b50505050508152602001600282018054600181600116156101000203166002900480601f016020809104026020016040519081016040528092919081815260200182805460018160011615610100020316600290048015611ec25780601f10611e9757610100808354040283529160200191611ec2565b820191906000526020600020905b815481529060010190602001808311611ea557829003601f168201915b50505050508152602001600382018054600181600116156101000203166002900480601f016020809104026020016040519081016040528092919081815260200182805460018160011615610100020316600290048015611f645780601f10611f3957610100808354040283529160200191611f64565b820191906000526020600020905b815481529060010190602001808311611f4757829003601f168201915b50505050508152602001600482018054600181600116156101000203166002900480601f0160208091040260200160405190810160405280929190818152602001828054600181600116156101000203166002900480156120065780601f10611fdb57610100808354040283529160200191612006565b820191906000526020600020905b815481529060010190602001808311611fe957829003601f168201915b50505050508152602001600582018054600181600116156101000203166002900480601f0160208091040260200160405190810160405280929190818152602001828054600181600116156101000203166002900480156120a85780601f1061207d576101008083540402835291602001916120a8565b820191906000526020600020905b81548152906001019060200180831161208b57829003601f168201915b50505050508152505090508060800151915050919050565b6001602052806000526040600020600091509050806000018054600181600116156101000203166002900480601f01602080910402602001604051908101604052809291908181526020018280546001816001161561010002031660029004801561216c5780601f106121415761010080835404028352916020019161216c565b820191906000526020600020905b81548152906001019060200180831161214f57829003601f168201915b505050505090806001018054600181600116156101000203166002900480601f01602080910402602001604051908101604052809291908181526020018280546001816001161561010002031660029004801561220a5780601f106121df5761010080835404028352916020019161220a565b820191906000526020600020905b8154815290600101906020018083116121ed57829003601f168201915b5050505050905082565b6005602052806000526040600020600091509050806000018054600181600116156101000203166002900480601f0160208091040260200160405190810160405280929190818152602001828054600181600116156101000203166002900480156122c05780601f10612295576101008083540402835291602001916122c0565b820191906000526020600020905b8154815290600101906020018083116122a357829003601f168201915b505050505090806001018054600181600116156101000203166002900480601f01602080910402602001604051908101604052809291908181526020018280546001816001161561010002031660029004801561235e5780601f106123335761010080835404028352916020019161235e565b820191906000526020600020905b81548152906001019060200180831161234157829003601f168201915b5050505050905082565b60008054905090565b606061237b612db5565b60016000848152602001908152602001600020604080519081016040529081600082018054600181600116156101000203166002900480601f0160208091040260200160405190810160405280929190818152602001828054600181600116156101000203166002900480156124325780601f1061240757610100808354040283529160200191612432565b820191906000526020600020905b81548152906001019060200180831161241557829003601f168201915b50505050508152602001600182018054600181600116156101000203166002900480601f0160208091040260200160405190810160405280929190818152602001828054600181600116156101000203166002900480156124d45780601f106124a9576101008083540402835291602001916124d4565b820191906000526020600020905b8154815290600101906020018083116124b757829003601f168201915b50505050508152505090508060000151915050919050565b6000600454905090565b6060612500612d7e565b6003600084815260200190815260200160002060c06040519081016040529081600082018054600181600116156101000203166002900480601f0160208091040260200160405190810160405280929190818152602001828054600181600116156101000203166002900480156125b85780601f1061258d576101008083540402835291602001916125b8565b820191906000526020600020905b81548152906001019060200180831161259b57829003601f168201915b50505050508152602001600182018054600181600116156101000203166002900480601f01602080910402602001604051908101604052809291908181526020018280546001816001161561010002031660029004801561265a5780601f1061262f5761010080835404028352916020019161265a565b820191906000526020600020905b81548152906001019060200180831161263d57829003601f168201915b50505050508152602001600282018054600181600116156101000203166002900480601f0160208091040260200160405190810160405280929190818152602001828054600181600116156101000203166002900480156126fc5780601f106126d1576101008083540402835291602001916126fc565b820191906000526020600020905b8154815290600101906020018083116126df57829003601f168201915b50505050508152602001600382018054600181600116156101000203166002900480601f01602080910402602001604051908101604052809291908181526020018280546001816001161561010002031660029004801561279e5780601f106127735761010080835404028352916020019161279e565b820191906000526020600020905b81548152906001019060200180831161278157829003601f168201915b50505050508152602001600482018054600181600116156101000203166002900480601f0160208091040260200160405190810160405280929190818152602001828054600181600116156101000203166002900480156128405780601f1061281557610100808354040283529160200191612840565b820191906000526020600020905b81548152906001019060200180831161282357829003601f168201915b50505050508152602001600582018054600181600116156101000203166002900480601f0160208091040260200160405190810160405280929190818152602001828054600181600116156101000203166002900480156128e25780601f106128b7576101008083540402835291602001916128e2565b820191906000526020600020905b8154815290600101906020018083116128c557829003601f168201915b50505050508152505090508060000151915050919050565b6060612904612d7e565b6003600084815260200190815260200160002060c06040519081016040529081600082018054600181600116156101000203166002900480601f0160208091040260200160405190810160405280929190818152602001828054600181600116156101000203166002900480156129bc5780601f10612991576101008083540402835291602001916129bc565b820191906000526020600020905b81548152906001019060200180831161299f57829003601f168201915b50505050508152602001600182018054600181600116156101000203166002900480601f016020809104026020016040519081016040528092919081815260200182805460018160011615610100020316600290048015612a5e5780601f10612a3357610100808354040283529160200191612a5e565b820191906000526020600020905b815481529060010190602001808311612a4157829003601f168201915b50505050508152602001600282018054600181600116156101000203166002900480601f016020809104026020016040519081016040528092919081815260200182805460018160011615610100020316600290048015612b005780601f10612ad557610100808354040283529160200191612b00565b820191906000526020600020905b815481529060010190602001808311612ae357829003601f168201915b50505050508152602001600382018054600181600116156101000203166002900480601f016020809104026020016040519081016040528092919081815260200182805460018160011615610100020316600290048015612ba25780601f10612b7757610100808354040283529160200191612ba2565b820191906000526020600020905b815481529060010190602001808311612b8557829003601f168201915b50505050508152602001600482018054600181600116156101000203166002900480601f016020809104026020016040519081016040528092919081815260200182805460018160011615610100020316600290048015612c445780601f10612c1957610100808354040283529160200191612c44565b820191906000526020600020905b815481529060010190602001808311612c2757829003601f168201915b50505050508152602001600582018054600181600116156101000203166002900480601f016020809104026020016040519081016040528092919081815260200182805460018160011615610100020316600290048015612ce65780601f10612cbb57610100808354040283529160200191612ce6565b820191906000526020600020905b815481529060010190602001808311612cc957829003601f168201915b50505050508152505090508060200151915050919050565b828054600181600116156101000203166002900490600052602060002090601f016020900481019282601f10612d3f57805160ff1916838001178555612d6d565b82800160010185558215612d6d579182015b82811115612d6c578251825591602001919060010190612d51565b5b509050612d7a9190612de9565b5090565b60c0604051908101604052806060815260200160608152602001606081526020016060815260200160608152602001606081525090565b604080519081016040528060608152602001606081525090565b604080519081016040528060608152602001606081525090565b612e0b91905b80821115612e07576000816000905550600101612def565b5090565b90565b600082601f8301121515612e2157600080fd5b8135612e34612e2f826131cd565b6131a0565b91508082526020830160208301858383011115612e5057600080fd5b612e5b838284613223565b50505092915050565b6000612e708235613219565b905092915050565b60008060408385031215612e8b57600080fd5b600083013567ffffffffffffffff811115612ea557600080fd5b612eb185828601612e0e565b925050602083013567ffffffffffffffff811115612ece57600080fd5b612eda85828601612e0e565b9150509250929050565b60008060008060008060c08789031215612efd57600080fd5b600087013567ffffffffffffffff811115612f1757600080fd5b612f2389828a01612e0e565b965050602087013567ffffffffffffffff811115612f4057600080fd5b612f4c89828a01612e0e565b955050604087013567ffffffffffffffff811115612f6957600080fd5b612f7589828a01612e0e565b945050606087013567ffffffffffffffff811115612f9257600080fd5b612f9e89828a01612e0e565b935050608087013567ffffffffffffffff811115612fbb57600080fd5b612fc789828a01612e0e565b92505060a087013567ffffffffffffffff811115612fe457600080fd5b612ff089828a01612e0e565b9150509295509295509295565b60006020828403121561300f57600080fd5b600061301d84828501612e64565b91505092915050565b600061303182613204565b808452613045816020860160208601613232565b61304e81613265565b602085010191505092915050565b6000613067826131f9565b80845261307b816020860160208601613232565b61308481613265565b602085010191505092915050565b61309b8161320f565b82525050565b600060208201905081810360008301526130bb8184613026565b905092915050565b600060408201905081810360008301526130dd818561305c565b905081810360208301526130f1818461305c565b90509392505050565b600060c0820190508181036000830152613114818961305c565b90508181036020830152613128818861305c565b9050818103604083015261313c818761305c565b90508181036060830152613150818661305c565b90508181036080830152613164818561305c565b905081810360a0830152613178818461305c565b9050979650505050505050565b600060208201905061319a6000830184613092565b92915050565b6000604051905081810181811067ffffffffffffffff821117156131c357600080fd5b8060405250919050565b600067ffffffffffffffff8211156131e457600080fd5b601f19601f8301169050602081019050919050565b600081519050919050565b600081519050919050565b6000819050919050565b6000819050919050565b82818337600083830152505050565b60005b83811015613250578082015181840152602081019050613235565b8381111561325f576000848401525b50505050565b6000601f19601f830116905091905056fea265627a7a7230582043ca3f2bbc27af7bbdb9cb9d4bc797f8d7881c715b0b2821305435b0f86ea1a96c6578706572696d656e74616cf50037",
  "source": "pragma solidity >= 0.4.0 <= 0.9;\r\npragma experimental ABIEncoderV2;\r\n//Authentication solidity code\r\ncontract Authentication {\r\n\r\n    uint public authCount = 0; \r\n    mapping(uint => auth) public authList; \r\n     struct auth\r\n     {\r\n       string auth_hash;\r\n       string requester;\r\n     }\r\n \r\n   // events \r\n   event authCreated(uint indexed _authId);\r\n   \r\n   //function  to save auth details to Blockchain\r\n   function saveAuthentication(string memory hd, string memory req) public {\r\n      authList[authCount] = auth(hd, req);\r\n      emit authCreated(authCount);\r\n      authCount++;\r\n    }\r\n\r\n     //get authentication count\r\n    function getAuthenticationCount()  public view returns (uint) {\r\n          return  authCount;\r\n    }\r\n\r\n     function getAuthentication(uint i) public view returns (string memory) {\r\n        auth memory hl = authList[i];\r\n\treturn hl.auth_hash;\r\n    }\r\n\r\n     function getRequester(uint i) public view returns (string memory) {\r\n        auth memory hl = authList[i];\r\n\treturn hl.requester;\r\n    } \r\n\t\r\n uint public userCount = 0; \r\n    mapping(uint => user) public usersList; \r\n     struct user\r\n     {\r\n       string username;\r\n       string password;\r\n       string phone;\r\n       string email;\r\n       string user_address;\r\n       string usertype;\r\n     }\r\n \r\n   // events\r\n \r\n   event userCreated(uint indexed _userId);\r\n \r\n  function createUser(string memory _username, string memory _password, string memory _phone, string memory _email, string memory _address, string memory ut) public {\r\n      usersList[userCount] = user(_username, _password, _phone, _email, _address, ut);\r\n      emit userCreated(userCount);\r\n      userCount++;\r\n    }\r\n\r\n    \r\n     //get user count\r\n    function getUserCount()  public view returns (uint) {\r\n          return  userCount;\r\n    }\r\n\r\n    function getUsername(uint i) public view returns (string memory) {\r\n        user memory usr = usersList[i];\r\n\treturn usr.username;\r\n    }\r\n\r\n    function getPassword(uint i) public view returns (string memory) {\r\n        user memory usr = usersList[i];\r\n\treturn usr.password;\r\n    }\r\n\r\n    function getAddress(uint i) public view returns (string memory) {\r\n        user memory usr = usersList[i];\r\n\treturn usr.user_address;\r\n    }\r\n\r\n    function getEmail(uint i) public view returns (string memory) {\r\n        user memory usr = usersList[i];\r\n\treturn usr.email;\r\n    }\r\n\r\n    function getPhone(uint i) public view returns (string memory) {\r\n        user memory usr = usersList[i];\r\n\treturn usr.phone;\r\n    }\r\n    \r\n    function getUserType(uint i) public view returns (string memory) {\r\n        user memory usr = usersList[i];\r\n\treturn usr.usertype;\r\n    }\r\n\r\n     uint public ownerCount = 0; \r\n    mapping(uint => owner) public ownerList; \r\n     struct owner\r\n     {\r\n       string owner_details;\r\n       string ownername;\r\n     }\r\n \r\n   // events \r\n   event ownerCreated(uint indexed _ownerId);\r\n   \r\n   //function  to save owner details to Blockchain\r\n   function saveOwner(string memory od, string memory on) public {\r\n      ownerList[ownerCount] = owner(od, on);\r\n      emit ownerCreated(ownerCount);\r\n      ownerCount++;\r\n    }\r\n\r\n     //get owner count\r\n    function getOwnerCount()  public view returns (uint) {\r\n          return ownerCount;\r\n    }\r\n\r\n     function getDetails(uint i) public view returns (string memory) {\r\n        owner memory hl = ownerList[i];\r\n\treturn hl.owner_details;\r\n    }\r\n\r\n     function getOwnername(uint i) public view returns (string memory) {\r\n        owner memory hl = ownerList[i];\r\n\treturn hl.ownername;\r\n    } \r\n\r\n}",
  "sourcePath": "C:\\Users\\ponak\\Desktop\\Effective Identity Authentication Based on Multiattribute Centers for Secure Government Data Sharing\\contracts\\Authentication.sol",
  "compiler": {
    "name": "solc",
    "version": "0.5.1+commit.c8a2cb62.Emscripten.clang"
  },
  "schemaVersion": "3.4.16",
  "updatedAt": "2025-03-25T13:13:14.720Z",
  "networkType": "ethereum",
  "devdoc": {
    "methods": {}
  },
  "userdoc": {
    "methods": {}
  }
}