{
  "contractName": "Authentication",
  "abi": [
    {
      "anonymous": false,
      "inputs": [
        {
          "indexed": true,
          "internalType": "uint256",
          "name": "_authId",
          "type": "uint256"
        }
      ],
      "name": "authCreated",
      "type": "event"
    },
    {
      "anonymous": false,
      "inputs": [
        {
          "indexed": true,
          "internalType": "uint256",
          "name": "_ownerId",
          "type": "uint256"
        }
      ],
      "name": "ownerCreated",
      "type": "event"
    },
    {
      "anonymous": false,
      "inputs": [
        {
          "indexed": true,
          "internalType": "uint256",
          "name": "_userId",
          "type": "uint256"
        }
      ],
      "name": "userCreated",
      "type": "event"
    },
    {
      "inputs": [],
      "name": "authCount",
      "outputs": [
        {
          "internalType": "uint256",
          "name": "",
          "type": "uint256"
        }
      ],
      "stateMutability": "view",
      "type": "function",
      "constant": true
    },
    {
      "inputs": [
        {
          "internalType": "uint256",
          "name": "",
          "type": "uint256"
        }
      ],
      "name": "authList",
      "outputs": [
        {
          "internalType": "string",
          "name": "auth_hash",
          "type": "string"
        },
        {
          "internalType": "string",
          "name": "requester",
          "type": "string"
        }
      ],
      "stateMutability": "view",
      "type": "function",
      "constant": true
    },
    {
      "inputs": [],
      "name": "ownerCount",
      "outputs": [
        {
          "internalType": "uint256",
          "name": "",
          "type": "uint256"
        }
      ],
      "stateMutability": "view",
      "type": "function",
      "constant": true
    },
    {
      "inputs": [
        {
          "internalType": "uint256",
          "name": "",
          "type": "uint256"
        }
      ],
      "name": "ownerList",
      "outputs": [
        {
          "internalType": "string",
          "name": "owner_details",
          "type": "string"
        },
        {
          "internalType": "string",
          "name": "ownername",
          "type": "string"
        }
      ],
      "stateMutability": "view",
      "type": "function",
      "constant": true
    },
    {
      "inputs": [],
      "name": "userCount",
      "outputs": [
        {
          "internalType": "uint256",
          "name": "",
          "type": "uint256"
        }
      ],
      "stateMutability": "view",
      "type": "function",
      "constant": true
    },
    {
      "inputs": [
        {
          "internalType": "uint256",
          "name": "",
          "type": "uint256"
        }
      ],
      "name": "usersList",
      "outputs": [
        {
          "internalType": "string",
          "name": "username",
          "type": "string"
        },
        {
          "internalType": "string",
          "name": "password",
          "type": "string"
        },
        {
          "internalType": "string",
          "name": "phone",
          "type": "string"
        },
        {
          "internalType": "string",
          "name": "email",
          "type": "string"
        },
        {
          "internalType": "string",
          "name": "user_address",
          "type": "string"
        },
        {
          "internalType": "string",
          "name": "usertype",
          "type": "string"
        }
      ],
      "stateMutability": "view",
      "type": "function",
      "constant": true
    },
    {
      "inputs": [
        {
          "internalType": "string",
          "name": "hd",
          "type": "string"
        },
        {
          "internalType": "string",
          "name": "req",
          "type": "string"
        }
      ],
      "name": "saveAuthentication",
      "outputs": [],
      "stateMutability": "nonpayable",
      "type": "function"
    },
    {
      "inputs": [],
      "name": "getAuthenticationCount",
      "outputs": [
        {
          "internalType": "uint256",
          "name": "",
          "type": "uint256"
        }
      ],
      "stateMutability": "view",
      "type": "function",
      "constant": true
    },
    {
      "inputs": [
        {
          "internalType": "uint256",
          "name": "i",
          "type": "uint256"
        }
      ],
      "name": "getAuthentication",
      "outputs": [
        {
          "internalType": "string",
          "name": "",
          "type": "string"
        }
      ],
      "stateMutability": "view",
      "type": "function",
      "constant": true
    },
    {
      "inputs": [
        {
          "internalType": "uint256",
          "name": "i",
          "type": "uint256"
        }
      ],
      "name": "getRequester",
      "outputs": [
        {
          "internalType": "string",
          "name": "",
          "type": "string"
        }
      ],
      "stateMutability": "view",
      "type": "function",
      "constant": true
    },
    {
      "inputs": [
        {
          "internalType": "string",
          "name": "_username",
          "type": "string"
        },
        {
          "internalType": "string",
          "name": "_password",
          "type": "string"
        },
        {
          "internalType": "string",
          "name": "_phone",
          "type": "string"
        },
        {
          "internalType": "string",
          "name": "_email",
          "type": "string"
        },
        {
          "internalType": "string",
          "name": "_address",
          "type": "string"
        },
        {
          "internalType": "string",
          "name": "ut",
          "type": "string"
        }
      ],
      "name": "createUser",
      "outputs": [],
      "stateMutability": "nonpayable",
      "type": "function"
    },
    {
      "inputs": [],
      "name": "getUserCount",
      "outputs": [
        {
          "internalType": "uint256",
          "name": "",
          "type": "uint256"
        }
      ],
      "stateMutability": "view",
      "type": "function",
      "constant": true
    },
    {
      "inputs": [
        {
          "internalType": "uint256",
          "name": "i",
          "type": "uint256"
        }
      ],
      "name": "getUsername",
      "outputs": [
        {
          "internalType": "string",
          "name": "",
          "type": "string"
        }
      ],
      "stateMutability": "view",
      "type": "function",
      "constant": true
    },
    {
      "inputs": [
        {
          "internalType": "uint256",
          "name": "i",
          "type": "uint256"
        }
      ],
      "name": "getPassword",
      "outputs": [
        {
          "internalType": "string",
          "name": "",
          "type": "string"
        }
      ],
      "stateMutability": "view",
      "type": "function",
      "constant": true
    },
    {
      "inputs": [
        {
          "internalType": "uint256",
          "name": "i",
          "type": "uint256"
        }
      ],
      "name": "getAddress",
      "outputs": [
        {
          "internalType": "string",
          "name": "",
          "type": "string"
        }
      ],
      "stateMutability": "view",
      "type": "function",
      "constant": true
    },
    {
      "inputs": [
        {
          "internalType": "uint256",
          "name": "i",
          "type": "uint256"
        }
      ],
      "name": "getEmail",
      "outputs": [
        {
          "internalType": "string",
          "name": "",
          "type": "string"
        }
      ],
      "stateMutability": "view",
      "type": "function",
      "constant": true
    },
    {
      "inputs": [
        {
          "internalType": "uint256",
          "name": "i",
          "type": "uint256"
        }
      ],
      "name": "getPhone",
      "outputs": [
        {
          "internalType": "string",
          "name": "",
          "type": "string"
        }
      ],
      "stateMutability": "view",
      "type": "function",
      "constant": true
    },
    {
      "inputs": [
        {
          "internalType": "uint256",
          "name": "i",
          "type": "uint256"
        }
      ],
      "name": "getUserType",
      "outputs": [
        {
          "internalType": "string",
          "name": "",
          "type": "string"
        }
      ],
      "stateMutability": "view",
      "type": "function",
      "constant": true
    },
    {
      "inputs": [
        {
          "internalType": "string",
          "name": "od",
          "type": "string"
        },
        {
          "internalType": "string",
          "name": "on",
          "type": "string"
        }
      ],
      "name": "saveOwner",
      "outputs": [],
      "stateMutability": "nonpayable",
      "type": "function"
    },
    {
      "inputs": [],
      "name": "getOwnerCount",
      "outputs": [
        {
          "internalType": "uint256",
          "name": "",
          "type": "uint256"
        }
      ],
      "stateMutability": "view",
      "type": "function",
      "constant": true
    },
    {
      "inputs": [
        {
          "internalType": "uint256",
          "name": "i",
          "type": "uint256"
        }
      ],
      "name": "getDetails",
      "outputs": [
        {
          "internalType": "string",
          "name": "",
          "type": "string"
        }
      ],
      "stateMutability": "view",
      "type": "function",
      "constant": true
    },
    {
      "inputs": [
        {
          "internalType": "uint256",
          "name": "i",
          "type": "uint256"
        }
      ],
      "name": "getOwnername",
      "outputs": [
        {
          "internalType": "string",
          "name": "",
          "type": "string"
        }
      ],
      "stateMutability": "view",
      "type": "function",
      "constant": true
    }
  ],
  "bytecode": "0x6080604052600080556000600255600060045534801561001e57600080fd5b5061263b8061002e6000396000f3fe608060405234801561001057600080fd5b506004361061015f576000357c010000000000000000000000000000000000000000000000000000000090048063b83c2f36116100d5578063def79ab511610099578063def79ab5146102ad578063e37b842a146102c0578063ec31fee8146102c8578063ef18374a146102db578063f18d18cc146102e3578063f38c6bb6146102f657600080fd5b8063b83c2f361461024a578063b8abb1a01461025d578063b93a89f714610266578063b93f9b0a14610279578063d98307fd1461028c57600080fd5b80632e7d44b5116101275780632e7d44b5146101d1578063502aa3b5146101e4578063972fe8bc1461020957806399c6679d1461021c578063ad856c281461022f578063b5cb15f71461024257600080fd5b806301dadb2b1461016457806307973ccf146101795780630db026221461019557806313f58f711461019e578063206442e8146101be575b600080fd5b6101776101723660046122e6565b610309565b005b61018260025481565b6040519081526020015b60405180910390f35b61018260045481565b6101b16101ac3660046123db565b610435565b60405161018c9190612441565b6101776101cc36600461245b565b6107cf565b6101b16101df3660046123db565b610867565b6101f76101f23660046123db565b610c01565b60405161018c969594939291906124bf565b6101b16102173660046123db565b610f65565b6101b161022a3660046123db565b6112ff565b61017761023d36600461245b565b611451565b600254610182565b6101b16102583660046123db565b6114e4565b61018260005481565b6101b16102743660046123db565b611516565b6101b16102873660046123db565b611666565b61029f61029a3660046123db565b611a00565b60405161018c929190612541565b61029f6102bb3660046123db565b611b2c565b600054610182565b6101b16102d63660046123db565b611b47565b600454610182565b6101b16102f13660046123db565b611b79565b6101b16103043660046123db565b611e85565b6040805160c0810182528781526020808201889052818301879052606082018690526080820185905260a0820184905260025460009081526003825292909220815180519293919261035e9284920190612191565b5060208281015180516103779260018501920190612191565b5060408201518051610393916002840191602090910190612191565b50606082015180516103af916003840191602090910190612191565b50608082015180516103cb916004840191602090910190612191565b5060a082015180516103e7916005840191602090910190612191565b50506002546040519091507f1ed675bb725b3a8b0434b9ee956fe05e4c0e79f9dc67c3f1a717a5bb1fd88fd390600090a2600280549060006104288361256f565b9190505550505050505050565b60606000600360008481526020019081526020016000206040518060c0016040529081600082018054610467906125b1565b80601f0160208091040260200160405190810160405280929190818152602001828054610493906125b1565b80156104e05780601f106104b5576101008083540402835291602001916104e0565b820191906000526020600020905b8154815290600101906020018083116104c357829003601f168201915b505050505081526020016001820180546104f9906125b1565b80601f0160208091040260200160405190810160405280929190818152602001828054610525906125b1565b80156105725780601f1061054757610100808354040283529160200191610572565b820191906000526020600020905b81548152906001019060200180831161055557829003601f168201915b5050505050815260200160028201805461058b906125b1565b80601f01602080910402602001604051908101604052809291908181526020018280546105b7906125b1565b80156106045780601f106105d957610100808354040283529160200191610604565b820191906000526020600020905b8154815290600101906020018083116105e757829003601f168201915b5050505050815260200160038201805461061d906125b1565b80601f0160208091040260200160405190810160405280929190818152602001828054610649906125b1565b80156106965780601f1061066b57610100808354040283529160200191610696565b820191906000526020600020905b81548152906001019060200180831161067957829003601f168201915b505050505081526020016004820180546106af906125b1565b80601f01602080910402602001604051908101604052809291908181526020018280546106db906125b1565b80156107285780601f106106fd57610100808354040283529160200191610728565b820191906000526020600020905b81548152906001019060200180831161070b57829003601f168201915b50505050508152602001600582018054610741906125b1565b80601f016020809104026020016040519081016040528092919081815260200182805461076d906125b1565b80156107ba5780601f1061078f576101008083540402835291602001916107ba565b820191906000526020600020905b81548152906001019060200180831161079d57829003601f168201915b5050509190925250505060a001519392505050565b6040805180820182528381526020808201849052600080548152600182529290922081518051929391926108069284920190612191565b50602082810151805161081f9260018501920190612191565b5050600080546040519092507f35e968f08f98d5ae8eb3ea4a6e678dfd5c47de93fa04d11f8d2e9f61c6dbd58d9190a260008054908061085e8361256f565b91905055505050565b60606000600360008481526020019081526020016000206040518060c0016040529081600082018054610899906125b1565b80601f01602080910402602001604051908101604052809291908181526020018280546108c5906125b1565b80156109125780601f106108e757610100808354040283529160200191610912565b820191906000526020600020905b8154815290600101906020018083116108f557829003601f168201915b5050505050815260200160018201805461092b906125b1565b80601f0160208091040260200160405190810160405280929190818152602001828054610957906125b1565b80156109a45780601f10610979576101008083540402835291602001916109a4565b820191906000526020600020905b81548152906001019060200180831161098757829003601f168201915b505050505081526020016002820180546109bd906125b1565b80601f01602080910402602001604051908101604052809291908181526020018280546109e9906125b1565b8015610a365780601f10610a0b57610100808354040283529160200191610a36565b820191906000526020600020905b815481529060010190602001808311610a1957829003601f168201915b50505050508152602001600382018054610a4f906125b1565b80601f0160208091040260200160405190810160405280929190818152602001828054610a7b906125b1565b8015610ac85780601f10610a9d57610100808354040283529160200191610ac8565b820191906000526020600020905b815481529060010190602001808311610aab57829003601f168201915b50505050508152602001600482018054610ae1906125b1565b80601f0160208091040260200160405190810160405280929190818152602001828054610b0d906125b1565b8015610b5a5780601f10610b2f57610100808354040283529160200191610b5a565b820191906000526020600020905b815481529060010190602001808311610b3d57829003601f168201915b50505050508152602001600582018054610b73906125b1565b80601f0160208091040260200160405190810160405280929190818152602001828054610b9f906125b1565b8015610bec5780601f10610bc157610100808354040283529160200191610bec565b820191906000526020600020905b815481529060010190602001808311610bcf57829003601f168201915b50505091909252505050604001519392505050565b600360205260009081526040902080548190610c1c906125b1565b80601f0160208091040260200160405190810160405280929190818152602001828054610c48906125b1565b8015610c955780601f10610c6a57610100808354040283529160200191610c95565b820191906000526020600020905b815481529060010190602001808311610c7857829003601f168201915b505050505090806001018054610caa906125b1565b80601f0160208091040260200160405190810160405280929190818152602001828054610cd6906125b1565b8015610d235780601f10610cf857610100808354040283529160200191610d23565b820191906000526020600020905b815481529060010190602001808311610d0657829003601f168201915b505050505090806002018054610d38906125b1565b80601f0160208091040260200160405190810160405280929190818152602001828054610d64906125b1565b8015610db15780601f10610d8657610100808354040283529160200191610db1565b820191906000526020600020905b815481529060010190602001808311610d9457829003601f168201915b505050505090806003018054610dc6906125b1565b80601f0160208091040260200160405190810160405280929190818152602001828054610df2906125b1565b8015610e3f5780601f10610e1457610100808354040283529160200191610e3f565b820191906000526020600020905b815481529060010190602001808311610e2257829003601f168201915b505050505090806004018054610e54906125b1565b80601f0160208091040260200160405190810160405280929190818152602001828054610e80906125b1565b8015610ecd5780601f10610ea257610100808354040283529160200191610ecd565b820191906000526020600020905b815481529060010190602001808311610eb057829003601f168201915b505050505090806005018054610ee2906125b1565b80601f0160208091040260200160405190810160405280929190818152602001828054610f0e906125b1565b8015610f5b5780601f10610f3057610100808354040283529160200191610f5b565b820191906000526020600020905b815481529060010190602001808311610f3e57829003601f168201915b5050505050905086565b60606000600360008481526020019081526020016000206040518060c0016040529081600082018054610f97906125b1565b80601f0160208091040260200160405190810160405280929190818152602001828054610fc3906125b1565b80156110105780601f10610fe557610100808354040283529160200191611010565b820191906000526020600020905b815481529060010190602001808311610ff357829003601f168201915b50505050508152602001600182018054611029906125b1565b80601f0160208091040260200160405190810160405280929190818152602001828054611055906125b1565b80156110a25780601f10611077576101008083540402835291602001916110a2565b820191906000526020600020905b81548152906001019060200180831161108557829003601f168201915b505050505081526020016002820180546110bb906125b1565b80601f01602080910402602001604051908101604052809291908181526020018280546110e7906125b1565b80156111345780601f1061110957610100808354040283529160200191611134565b820191906000526020600020905b81548152906001019060200180831161111757829003601f168201915b5050505050815260200160038201805461114d906125b1565b80601f0160208091040260200160405190810160405280929190818152602001828054611179906125b1565b80156111c65780601f1061119b576101008083540402835291602001916111c6565b820191906000526020600020905b8154815290600101906020018083116111a957829003601f168201915b505050505081526020016004820180546111df906125b1565b80601f016020809104026020016040519081016040528092919081815260200182805461120b906125b1565b80156112585780601f1061122d57610100808354040283529160200191611258565b820191906000526020600020905b81548152906001019060200180831161123b57829003601f168201915b50505050508152602001600582018054611271906125b1565b80601f016020809104026020016040519081016040528092919081815260200182805461129d906125b1565b80156112ea5780601f106112bf576101008083540402835291602001916112ea565b820191906000526020600020905b8154815290600101906020018083116112cd57829003601f168201915b50505091909252505050606001519392505050565b6060600060016000848152602001908152602001600020604051806040016040529081600082018054611331906125b1565b80601f016020809104026020016040519081016040528092919081815260200182805461135d906125b1565b80156113aa5780601f1061137f576101008083540402835291602001916113aa565b820191906000526020600020905b81548152906001019060200180831161138d57829003601f168201915b505050505081526020016001820180546113c3906125b1565b80601f01602080910402602001604051908101604052809291908181526020018280546113ef906125b1565b801561143c5780601f106114115761010080835404028352916020019161143c565b820191906000526020600020905b81548152906001019060200180831161141f57829003601f168201915b50505091909252505050602001519392505050565b604080518082018252838152602080820184905260045460009081526005825292909220815180519293919261148a9284920190612191565b5060208281015180516114a39260018501920190612191565b50506004546040519091507f48fe6736e03cde2f72bd997489027a1c856261c1be6055e12496e8464688b1f490600090a26004805490600061085e8361256f565b6060600060056000848152602001908152602001600020604051806040016040529081600082018054611331906125b1565b6060600060056000848152602001908152602001600020604051806040016040529081600082018054611548906125b1565b80601f0160208091040260200160405190810160405280929190818152602001828054611574906125b1565b80156115c15780601f10611596576101008083540402835291602001916115c1565b820191906000526020600020905b8154815290600101906020018083116115a457829003601f168201915b505050505081526020016001820180546115da906125b1565b80601f0160208091040260200160405190810160405280929190818152602001828054611606906125b1565b80156116535780601f1061162857610100808354040283529160200191611653565b820191906000526020600020905b81548152906001019060200180831161163657829003601f168201915b5050509190925250509051949350505050565b60606000600360008481526020019081526020016000206040518060c0016040529081600082018054611698906125b1565b80601f01602080910402602001604051908101604052809291908181526020018280546116c4906125b1565b80156117115780601f106116e657610100808354040283529160200191611711565b820191906000526020600020905b8154815290600101906020018083116116f457829003601f168201915b5050505050815260200160018201805461172a906125b1565b80601f0160208091040260200160405190810160405280929190818152602001828054611756906125b1565b80156117a35780601f10611778576101008083540402835291602001916117a3565b820191906000526020600020905b81548152906001019060200180831161178657829003601f168201915b505050505081526020016002820180546117bc906125b1565b80601f01602080910402602001604051908101604052809291908181526020018280546117e8906125b1565b80156118355780601f1061180a57610100808354040283529160200191611835565b820191906000526020600020905b81548152906001019060200180831161181857829003601f168201915b5050505050815260200160038201805461184e906125b1565b80601f016020809104026020016040519081016040528092919081815260200182805461187a906125b1565b80156118c75780601f1061189c576101008083540402835291602001916118c7565b820191906000526020600020905b8154815290600101906020018083116118aa57829003601f168201915b505050505081526020016004820180546118e0906125b1565b80601f016020809104026020016040519081016040528092919081815260200182805461190c906125b1565b80156119595780601f1061192e57610100808354040283529160200191611959565b820191906000526020600020905b81548152906001019060200180831161193c57829003601f168201915b50505050508152602001600582018054611972906125b1565b80601f016020809104026020016040519081016040528092919081815260200182805461199e906125b1565b80156119eb5780601f106119c0576101008083540402835291602001916119eb565b820191906000526020600020905b8154815290600101906020018083116119ce57829003601f168201915b50505091909252505050608001519392505050565b600160205260009081526040902080548190611a1b906125b1565b80601f0160208091040260200160405190810160405280929190818152602001828054611a47906125b1565b8015611a945780601f10611a6957610100808354040283529160200191611a94565b820191906000526020600020905b815481529060010190602001808311611a7757829003601f168201915b505050505090806001018054611aa9906125b1565b80601f0160208091040260200160405190810160405280929190818152602001828054611ad5906125b1565b8015611b225780601f10611af757610100808354040283529160200191611b22565b820191906000526020600020905b815481529060010190602001808311611b0557829003601f168201915b5050505050905082565b600560205260009081526040902080548190611a1b906125b1565b6060600060016000848152602001908152602001600020604051806040016040529081600082018054611548906125b1565b60606000600360008481526020019081526020016000206040518060c0016040529081600082018054611bab906125b1565b80601f0160208091040260200160405190810160405280929190818152602001828054611bd7906125b1565b8015611c245780601f10611bf957610100808354040283529160200191611c24565b820191906000526020600020905b815481529060010190602001808311611c0757829003601f168201915b50505050508152602001600182018054611c3d906125b1565b80601f0160208091040260200160405190810160405280929190818152602001828054611c69906125b1565b8015611cb65780601f10611c8b57610100808354040283529160200191611cb6565b820191906000526020600020905b815481529060010190602001808311611c9957829003601f168201915b50505050508152602001600282018054611ccf906125b1565b80601f0160208091040260200160405190810160405280929190818152602001828054611cfb906125b1565b8015611d485780601f10611d1d57610100808354040283529160200191611d48565b820191906000526020600020905b815481529060010190602001808311611d2b57829003601f168201915b50505050508152602001600382018054611d61906125b1565b80601f0160208091040260200160405190810160405280929190818152602001828054611d8d906125b1565b8015611dda5780601f10611daf57610100808354040283529160200191611dda565b820191906000526020600020905b815481529060010190602001808311611dbd57829003601f168201915b50505050508152602001600482018054611df3906125b1565b80601f0160208091040260200160405190810160405280929190818152602001828054611e1f906125b1565b8015611e6c5780601f10611e4157610100808354040283529160200191611e6c565b820191906000526020600020905b815481529060010190602001808311611e4f57829003601f168201915b505050505081526020016005820180546115da906125b1565b60606000600360008481526020019081526020016000206040518060c0016040529081600082018054611eb7906125b1565b80601f0160208091040260200160405190810160405280929190818152602001828054611ee3906125b1565b8015611f305780601f10611f0557610100808354040283529160200191611f30565b820191906000526020600020905b815481529060010190602001808311611f1357829003601f168201915b50505050508152602001600182018054611f49906125b1565b80601f0160208091040260200160405190810160405280929190818152602001828054611f75906125b1565b8015611fc25780601f10611f9757610100808354040283529160200191611fc2565b820191906000526020600020905b815481529060010190602001808311611fa557829003601f168201915b50505050508152602001600282018054611fdb906125b1565b80601f0160208091040260200160405190810160405280929190818152602001828054612007906125b1565b80156120545780601f1061202957610100808354040283529160200191612054565b820191906000526020600020905b81548152906001019060200180831161203757829003601f168201915b5050505050815260200160038201805461206d906125b1565b80601f0160208091040260200160405190810160405280929190818152602001828054612099906125b1565b80156120e65780601f106120bb576101008083540402835291602001916120e6565b820191906000526020600020905b8154815290600101906020018083116120c957829003601f168201915b505050505081526020016004820180546120ff906125b1565b80601f016020809104026020016040519081016040528092919081815260200182805461212b906125b1565b80156121785780601f1061214d57610100808354040283529160200191612178565b820191906000526020600020905b81548152906001019060200180831161215b57829003601f168201915b505050505081526020016005820180546113c3906125b1565b82805461219d906125b1565b90600052602060002090601f0160209004810192826121bf5760008555612205565b82601f106121d857805160ff1916838001178555612205565b82800160010185558215612205579182015b828111156122055782518255916020019190600101906121ea565b50612211929150612215565b5090565b5b808211156122115760008155600101612216565b7f4e487b7100000000000000000000000000000000000000000000000000000000600052604160045260246000fd5b600082601f83011261226a57600080fd5b813567ffffffffffffffff808211156122855761228561222a565b604051601f8301601f19908116603f011681019082821181831017156122ad576122ad61222a565b816040528381528660208588010111156122c657600080fd5b836020870160208301376000602085830101528094505050505092915050565b60008060008060008060c087890312156122ff57600080fd5b863567ffffffffffffffff8082111561231757600080fd5b6123238a838b01612259565b9750602089013591508082111561233957600080fd5b6123458a838b01612259565b9650604089013591508082111561235b57600080fd5b6123678a838b01612259565b9550606089013591508082111561237d57600080fd5b6123898a838b01612259565b9450608089013591508082111561239f57600080fd5b6123ab8a838b01612259565b935060a08901359150808211156123c157600080fd5b506123ce89828a01612259565b9150509295509295509295565b6000602082840312156123ed57600080fd5b5035919050565b6000815180845260005b8181101561241a576020818501810151868301820152016123fe565b8181111561242c576000602083870101525b50601f01601f19169290920160200192915050565b60208152600061245460208301846123f4565b9392505050565b6000806040838503121561246e57600080fd5b823567ffffffffffffffff8082111561248657600080fd5b61249286838701612259565b935060208501359150808211156124a857600080fd5b506124b585828601612259565b9150509250929050565b60c0815260006124d260c08301896123f4565b82810360208401526124e481896123f4565b905082810360408401526124f881886123f4565b9050828103606084015261250c81876123f4565b9050828103608084015261252081866123f4565b905082810360a084015261253481856123f4565b9998505050505050505050565b60408152600061255460408301856123f4565b828103602084015261256681856123f4565b95945050505050565b60006000198214156125aa577f4e487b7100000000000000000000000000000000000000000000000000000000600052601160045260246000fd5b5060010190565b6002810460018216806125c557607f821691505b602082108114156125ff577f4e487b7100000000000000000000000000000000000000000000000000000000600052602260045260246000fd5b5091905056fea2646970667358221220da827383746aaba14428ffbff9c0fdbc1ebe535afd5f0a1e5207358ca6308b6f64736f6c634300080b0033",
  "immutableReferences": {},
  "source": "pragma solidity >= 0.8.11 <= 0.8.11;\r\npragma experimental ABIEncoderV2;\r\n//Authentication solidity code\r\ncontract Authentication {\r\n\r\n    uint public authCount = 0; \r\n    mapping(uint => auth) public authList; \r\n     struct auth\r\n     {\r\n       string auth_hash;\r\n       string requester;\r\n     }\r\n \r\n   // events \r\n   event authCreated(uint indexed _authId);\r\n   \r\n   //function  to save auth details to Blockchain\r\n   function saveAuthentication(string memory hd, string memory req) public {\r\n      authList[authCount] = auth(hd, req);\r\n      emit authCreated(authCount);\r\n      authCount++;\r\n    }\r\n\r\n     //get authentication count\r\n    function getAuthenticationCount()  public view returns (uint) {\r\n          return  authCount;\r\n    }\r\n\r\n     function getAuthentication(uint i) public view returns (string memory) {\r\n        auth memory hl = authList[i];\r\n\treturn hl.auth_hash;\r\n    }\r\n\r\n     function getRequester(uint i) public view returns (string memory) {\r\n        auth memory hl = authList[i];\r\n\treturn hl.requester;\r\n    } \r\n\t\r\n uint public userCount = 0; \r\n    mapping(uint => user) public usersList; \r\n     struct user\r\n     {\r\n       string username;\r\n       string password;\r\n       string phone;\r\n       string email;\r\n       string user_address;\r\n       string usertype;\r\n     }\r\n \r\n   // events\r\n \r\n   event userCreated(uint indexed _userId);\r\n \r\n  function createUser(string memory _username, string memory _password, string memory _phone, string memory _email, string memory _address, string memory ut) public {\r\n      usersList[userCount] = user(_username, _password, _phone, _email, _address, ut);\r\n      emit userCreated(userCount);\r\n      userCount++;\r\n    }\r\n\r\n    \r\n     //get user count\r\n    function getUserCount()  public view returns (uint) {\r\n          return  userCount;\r\n    }\r\n\r\n    function getUsername(uint i) public view returns (string memory) {\r\n        user memory usr = usersList[i];\r\n\treturn usr.username;\r\n    }\r\n\r\n    function getPassword(uint i) public view returns (string memory) {\r\n        user memory usr = usersList[i];\r\n\treturn usr.password;\r\n    }\r\n\r\n    function getAddress(uint i) public view returns (string memory) {\r\n        user memory usr = usersList[i];\r\n\treturn usr.user_address;\r\n    }\r\n\r\n    function getEmail(uint i) public view returns (string memory) {\r\n        user memory usr = usersList[i];\r\n\treturn usr.email;\r\n    }\r\n\r\n    function getPhone(uint i) public view returns (string memory) {\r\n        user memory usr = usersList[i];\r\n\treturn usr.phone;\r\n    }\r\n    \r\n    function getUserType(uint i) public view returns (string memory) {\r\n        user memory usr = usersList[i];\r\n\treturn usr.usertype;\r\n    }\r\n\r\n     uint public ownerCount = 0; \r\n    mapping(uint => owner) public ownerList; \r\n     struct owner\r\n     {\r\n       string owner_details;\r\n       string ownername;\r\n     }\r\n \r\n   // events \r\n   event ownerCreated(uint indexed _ownerId);\r\n   \r\n   //function  to save owner details to Blockchain\r\n   function saveOwner(string memory od, string memory on) public {\r\n      ownerList[ownerCount] = owner(od, on);\r\n      emit ownerCreated(ownerCount);\r\n      ownerCount++;\r\n    }\r\n\r\n     //get owner count\r\n    function getOwnerCount()  public view returns (uint) {\r\n          return ownerCount;\r\n    }\r\n\r\n     function getDetails(uint i) public view returns (string memory) {\r\n        owner memory hl = ownerList[i];\r\n\treturn hl.owner_details;\r\n    }\r\n\r\n     function getOwnername(uint i) public view returns (string memory) {\r\n        owner memory hl = ownerList[i];\r\n\treturn hl.ownername;\r\n    } \r\n\r\n}",
  "sourcePath": "C:\\Users\\Admin\\Desktop\\Blockchain\\hello-eth\\node_modules\\.bin\\contracts\\Authentication.sol",
  "compiler": {
    "name": "solc",
    "version": "0.8.11+commit.d7f03943.Emscripten.clang"
  },
  "schemaVersion": "3.4.4",
  "updatedAt": "2024-06-19T07:47:16.853Z",
  "networkType": "ethereum",
  "devdoc": {
    "kind": "dev",
    "methods": {},
    "version": 1
  },
  "userdoc": {
    "kind": "user",
    "methods": {},
    "version": 1
  }
}